:100000000C945C000C9479000C9479000C947900A9
:100010000C9479000C9479000C9479000C9479007C
:100020000C9479000C9479000C9479000C9479006C
:100030000C9479000C9479000C9479000C9479005C
:100040000C94D1020C9479000C9479000C947900F2
:100050000C9479000C9479000C9479000C9479003C
:100060000C9479000C947900000000080002010053
:100070000003040700000000000000000000000072
:10008000250028002B0000000000240027002A0083
:10009000040404040404040402020202020203032E
:1000A0000303030301020408102040800102040836
:1000B000102001020408102011241FBECFEFD8E049
:1000C000DEBFCDBF11E0A0E0B1E0E6E7F8E002C09E
:1000D00005900D92A831B107D9F721E0A8E1B1E070
:1000E00001C01D92A332B207E1F70E941B030C94DA
:1000F00039040C94000090E0FC01EC55FF4F249172
:10010000FC01E057FF4F8491882399F090E0880F1D
:10011000991FFC01EA57FF4FA591B491FC01E458E7
:10012000FF4F859194918FB7F894EC91E22BEC936B
:100130008FBF089590E0FC01E859FF4F2491FC0126
:10014000EC55FF4F3491FC01E057FF4FE491EE2353
:1001500009F43CC0222339F1233091F038F42130E6
:10016000A9F0223001F584B58F7D12C0273091F0BF
:100170002830A1F02430B9F4809180008F7D03C035
:10018000809180008F77809380000DC084B58F7739
:1001900084BD09C08091B0008F7703C08091B0000A
:1001A0008F7D8093B000F0E0EE0FFF1FE458FF4F0B
:1001B000A591B4919FB7F894611104C08C913095CA
:1001C000382302C0EC913E2B3C939FBF08953FB76C
:1001D000F89480911F0190912001A0912101B0918C
:1001E000220126B5A89B05C02F3F19F00196A11D3D
:1001F000B11D3FBFBA2FA92F982F8827820F911DBD
:10020000A11DB11DBC01CD0142E0660F771F881F03
:10021000991F4A95D1F70895CF92DF92EF92FF92FE
:100220000F931F93CF93DF936C017A018B01C0E092
:10023000D0E0CE15DF0581F0D8016D918D01D6019A
:10024000ED91FC910190F081E02DC6010995892B7B
:1002500011F02196EECF7E01C701DF91CF911F9162
:100260000F91FF90EF90DF90CF900895CF93DF93A1
:10027000EC0160E08E810E949A0061E08E810E9414
:100280009A0060E08E810E949A008BE891E00197CD
:10029000F1F7DF91CF910895CF92DF92EF92FF9225
:1002A0000F931F93CF93DF936C017C0187E0E80EDF
:1002B000F11CC0E0D0E0062F10E0B8010C2E02C007
:1002C000759567950A94E2F76170F70181917F0156
:1002D0000E949A002196C430D10579F7C601DF91BA
:1002E000CF911F910F91FF90EF90DF90CF900C94E2
:1002F0003601CF92DF92EF92FF920F931F93CF932D
:10030000DF93EC01F62E642F8C810E949A008D8180
:100310008F3F19F060E00E949A008F850F2D10E04A
:1003200084FF25C06E0187E0C80ED11CE12CF12CA2
:10033000B8010E2C02C0759567950A94E2F76170BA
:10034000F60181916F010E949A00FFEFEF1AFF0AF8
:1003500088E0E816F10461F7CE01DF91CF911F919B
:100360000F91FF90EF90DF90CF900C943601B80181
:1003700084E0759567958A95E1F7CE010E944C015E
:100380006F2DCE01DF91CF911F910F91FF90EF90D4
:10039000DF90CF900C944C0140E00C947901EF92E7
:1003A000FF920F931F93CF93DF93EC01623018F00D
:1003B0008F8588608F876B8B1C8A80E48D8B80E1B2
:1003C0008E8B80E58F8B8C810E947B008D818F3F8F
:1003D00011F00E947B008E810E947B007E0187E0ED
:1003E000E80EF11C00E010E08F8584FD03C084E07E
:1003F00090E002C088E090E00817190744F4F70184
:1004000081917F010E947B000F5F1F4FEDCF8BE337
:100410009DE00197F1F760E08C810E949A0060E016
:100420008E810E949A008D818F3F19F060E00E94BA
:100430009A006F8564FD1DC063E0CE010E944C01EF
:100440000BE416E4C8010197F1F763E0CE010E94C6
:100450004C01C8010197F1F763E0CE010E944C0105
:1004600083E592E00197F1F762E0CE010E944C0132
:1004700016C06062CE010E94CC018BE496E4019725
:10048000F1F76F856062CE010E94CC0183E592E0B6
:100490000197F1F76F856062CE010E94CC016F85F4
:1004A0006062CE010E94CC0184E0888B6CE0CE01BA
:1004B0000E94CC0161E0CE010E94CC018BE39FE160
:1004C0000197F1F782E0898B66E0CE01DF91CF9151
:1004D0001F910F91FF90EF900C94CC0141E00E948E
:1004E000790181E090E00895089580E090E008951A
:1004F0008F929F92AF92BF92EF92FF920F931F93B2
:10050000CF93DF93CDB7DEB7A1970FB6F894DEBFD8
:100510000FBECDBF7C01FA01CB0119A2223008F435
:100520002AE08E010F5D1F4F822E912CA12CB12C41
:10053000BF01A50194010E941204F901CA010150F2
:1005400011096A3014F4605D01C0695CD8016C93D4
:10055000232B242B252B61F70115110569F0F801D8
:1005600001900020E9F73197AF01401B510BB80112
:10057000C7010E940C0102C080E090E0A1960FB676
:10058000F894DEBF0FBECDBFDF91CF911F910F91C9
:10059000FF90EF90BF90AF909F908F9008950E9432
:1005A00034041F920F920FB60F9211242F933F9392
:1005B0008F939F93AF93BF9380911B0190911C01E8
:1005C000A0911D01B0911E0130911A0123E0230F6B
:1005D0002D3720F40196A11DB11D05C026E8230F7B
:1005E0000296A11DB11D20931A0180931B019093C7
:1005F0001C01A0931D01B0931E0180911F019091D9
:100600002001A0912101B09122010196A11DB11DEF
:1006100080931F0190932001A0932101B0932201A8
:10062000BF91AF919F918F913F912F910F900FBEEE
:100630000F901F901895CF93DF93CDB7DEB76897D3
:100640000FB6F894DEBF0FBECDBF789484B582603C
:1006500084BD84B5816084BD85B5826085BD85B566
:10066000816085BD80916E00816080936E001092E4
:10067000810080918100826080938100809181005F
:1006800081608093810080918000816080938000F0
:100690008091B10084608093B1008091B00081604E
:1006A0008093B00080917A00846080937A0080917A
:1006B0007A00826080937A0080917A0081608093D2
:1006C0007A0080917A00806880937A001092C1004D
:1006D00001E010E054E0A52E51E0B52E1093190171
:1006E0000093180199E0992E2AE0822E3BE0332EE8
:1006F0004CE0242E809118019091190118161906CA
:100700000CF088C00E94E7002B013C0188EEC82E47
:1007100083E0D82EE12CF12C0E94E700DC01CB0114
:1007200084199509A609B709883E9340A105B1052A
:1007300098F321E0C21AD108E108F10888EE480ECA
:1007400083E0581E611C711CC114D104E104F10442
:1007500019F71C821B82BA82A98287E08D832FEF52
:100760002E8388E08F83988689863A862B861C861E
:100770001D861E861F86188A61E0CE0101960E94A2
:10078000CF0162E0CE0101960E94CF018C898230B8
:1007900010F4815001C081E0E5E1F0E0EC0FFD1FB5
:1007A000E80FF11D60816068CE0101960E94CC01C6
:1007B0004BE050E06CE071E0CE0101960E940C012C
:1007C000C0901801D09019010D2C000CEE08FF0804
:1007D000F7FE0FC041E06DE2CE0101960E94790163
:1007E00044275527BA014C195D096E097F092AE093
:1007F00003C02AE0B701A601CE0101960E9478024B
:10080000809118019091190101969093190180939C
:10081000180170CF80E090E0892B09F45FCF0E942F
:1008200000005CCFA1E21A2EAA1BBB1BFD010DC06C
:10083000AA1FBB1FEE1FFF1FA217B307E407F50790
:1008400020F0A21BB30BE40BF50B661F771F881F6C
:10085000991F1A9469F760957095809590959B0102
:10086000AC01BD01CF01089581E090E0F8940C94B3
:060870003904F894FFCFEB
:10087600000000006E020C017502740248656C6C83
:080886006F20576F726C6400D3
:00000001FF
