:100000000C945D000C9485000C9485000C94850084
:100010000C9485000C9485000C9485000C9485004C
:100020000C9485000C9485000C9485000C9485003C
:100030000C9485000C9485000C9485000C9485002C
:100040000C94FE030C9485000C9485000C948500A0
:100050000C9485000C9485000C9485000C9485000C
:100060000C94DF020C94850000000000240027009F
:100070002A0000000000250028002B0004040404CE
:100080000404040402020202020203030303030342
:10009000010204081020408001020408102001021F
:1000A00004081020000000080002010000030407FB
:1000B0000000000000000000480411241FBECFEF24
:1000C000D8E0DEBFCDBF11E0A0E0B1E0ECE7FDE09D
:1000D00002C005900D92AA33B107D9F722E0AAE336
:1000E000B1E001C01D92A131B207E1F710E0CDE50A
:1000F000D0E004C02197FE010E94B606CC35D1079E
:10010000C9F70E9468040C94BC060C94000085EDAD
:100110008093BC008091BC0084FDFCCF1092D30181
:1001200008952091AD01260F3327331F2132310569
:10013000ECF42091D301FC0190E080E0243069F0E0
:1001400082E00895A091AD012191AC0145575E4F29
:10015000A40FB52FB11D2C930196861798F38091AB
:10016000AD01680F6093AD0180E0089581E00895CE
:10017000089508950895E091880180918701E81716
:1001800030F4F0E0E959FE4F808190E008958FEF60
:100190009FEF089590918801809187012FEF3FEFA5
:1001A000981748F4E92FF0E0E959FE4F208130E03C
:1001B0009F5F90938801C901089580918701909174
:1001C0008801891B990B0895CF92DF92EF92FF92DD
:1001D0000F931F93CF93DF937C01CB018A01209172
:1001E0006601222389F0EB016B01C40ED51ECC15EC
:1001F000DD0569F06991D701ED91FC910190F081E5
:10020000E02DC7010995F3CF642F0E949100C8012A
:10021000DF91CF911F910F91FF90EF90DF90CF90E2
:100220000895CF93DF931F92CDB7DEB769832091F6
:1002300066012223F9F020918901203258F021E053
:1002400030E0FC013383228390E080E00F90DF9167
:10025000CF91089580918A01E82FF0E0EA5BFE4F8C
:10026000998190838F5F80938A018093890181E0D7
:1002700090E0ECCF61E0CE0101960E949100F7CFB3
:1002800090E0FC01EC55FF4F2491FC01E057FF4F3B
:100290003491FC01E458FF4FE491EE23C9F022238E
:1002A00039F0233001F1A8F4213019F1223029F17D
:1002B000F0E0EE0FFF1FEE58FF4FA591B4918FB7FE
:1002C000F894EC91611126C030953E233C938FBF8A
:1002D00008952730A9F02830C9F0243049F78091DB
:1002E00080008F7D03C0809180008F778093800095
:1002F000DFCF84B58F7784BDDBCF84B58F7DFBCF17
:100300008091B0008F778093B000D2CF8091B00001
:100310008F7DF9CF3E2BDACF3FB7F8948091420121
:1003200090914301A0914401B091450126B5A89B4D
:1003300005C02F3F19F00196A11DB11D3FBFBA2F77
:10034000A92F982F8827BC01CD01620F711D811D37
:10035000911D42E0660F771F881F991F4A95D1F7BC
:1003600008958F929F92AF92BF92CF92DF92EF92B9
:10037000FF924B015C010E948C016B017C010E9489
:100380008C016C197D098E099F09683E73408105B7
:100390009105A8F321E0821A9108A108B10888EE1E
:1003A000C80E83E0D81EE11CF11C81149104A10445
:1003B000B10429F7FF90EF90DF90CF90BF90AF90FE
:1003C0009F908F900895AF92BF92CF92DF92EF925D
:1003D000FF920F931F93CF93DF936C017B018B01EF
:1003E000040F151FEB015E01AE18BF08C017D1073F
:1003F00059F06991D601ED91FC910190F081E02DC9
:10040000C6010995892B79F7C501DF91CF911F911D
:100410000F91FF90EF90DF90CF90BF90AF90089535
:10042000CF93FC01C48121E020936601C0933A017F
:1004300010928A01109289018385682B89EF91E0DF
:100440000E94110190918901913208F03FC0809182
:10045000D3018111FCCF82E08093D30181E08093AE
:10046000D5018FEF8093D2011092F7019093F6019E
:10047000A6E4B1E0E6EDF1E080E098132FC0109221
:10048000F8018091F801CC0FC82BC093F80180913E
:10049000D401813039F51092D4018091F801809314
:1004A000BB008091BC0083FDF8CF85EC8093BC003D
:1004B0008091D3018230E1F38091D2018F3F31F0FE
:1004C0008091D201803211F08091D20110928A0184
:1004D0001092890110926601CF9108952D91219378
:1004E0008F5FCBCF85EEE2CF089590E080E0089556
:1004F0000F931F93CF938C01C62F0E9410026C2F75
:100500006460C8010E9410026C2F6B7FC8010E94BA
:10051000100283EC90E00197F1F7CF911F910F91BA
:1005200008950F931F93CF93DF938C01D62FC42F81
:10053000607F642B0E94780280E1D89FB001112473
:100540006C2BC801DF91CF911F910F910C94780211
:10055000CF93DF93CDB7DEB728970FB6F894DEBF01
:100560000FBECDBF98E0E0E0F1E0DE011196019012
:100570000D929A95E1F790910D02981708F48FEF7C
:1005800090E0880F991F21E030E02C0F3D1F820F73
:10059000931FFC016081606840E085E092E028964E
:1005A0000FB6F894DEBF0FBECDBFDF91CF910C9494
:1005B000910241E00E94910281E090E008951F9233
:1005C0000F920FB60F9211242F933F934F935F9387
:1005D0006F937F938F939F93AF93BF93EF93FF930B
:1005E0008091B900887F803609F44AC0F0F58832DE
:1005F00009F4A7C018F5803109F49BC0B8F488232A
:1006000009F4F9C0883009F494C0FF91EF91BF91CB
:10061000AF919F918F917F916F915F914F913F919A
:100620002F910F900FBE0F901F901895883109F4ED
:1006300088C0803251F78093D20114C0803409F40D
:100640009DC040F48033B9F38833F9F68093D2012A
:1006500085ECB0C0803509F485C0883509F496C0B2
:10066000883499F60E948700D0CF883909F48CC06D
:1006700038F5883729F050F4883611F0803729F69C
:1006800083E08093D3011092D10157C0883809F4D8
:100690007BC0803919F0803809F0B7CF8091D10143
:1006A000803208F071C0E091D10181E08E0F80931B
:1006B000D1018091BB00F0E0EF54FE4F80833DC03C
:1006C000803B39F0E0F4803A09F479C0883A09F0C7
:1006D0009CCF84E08093D3011092AE011092AD01C3
:1006E000E091AB01F091AC0109958091AD018111D0
:1006F0000FC081E08093AD0110928B0109C0803C56
:1007000009F4A6CF883C09F4A3CF883B09F07DCF3C
:10071000E091AE0181E08E0F8093AE01F0E0E557ED
:10072000FE4F80818093BB009091AE018091AD011E
:1007300029C08091F8018093BB0085EC8093BC00B8
:1007400064CF9091F7018091F601981758F5E091E8
:10075000F70181E08E0F8093F701F0E0EA52FE4F3F
:100760008081E9CFE091F70181E08E0F8093F7015E
:100770008091BB00F0E0EA52FE4F80839091F70138
:100780008091F6019817C8F285E8D8CFE091F7017B
:1007900081E08E0F8093F7018091BB00F0E0EA5278
:1007A000FE4F80838091D50181115CCF81E08093E1
:1007B000D40184EA8093BC001092D30126CF85EC4B
:1007C0008093BC001092D3018091D101803230F42B
:1007D000E091D101F0E0EF54FE4F10826091D10121
:1007E00070E0E091AF01F091B00181EB91E00995EB
:1007F0001092D1010ACF1092D20134CF1F920F92E2
:100800000FB60F9211242F933F938F939F93AF9323
:10081000BF9380913E0190913F01A0914001B09122
:10082000410130913D0123E0230F2D3758F501960A
:10083000A11DB11D20933D0180933E0190933F0186
:10084000A0934001B09341018091420190914301F6
:10085000A0914401B09145010196A11DB11D809365
:10086000420190934301A0934401B0934501BF918D
:10087000AF919F918F913F912F910F900FBE0F904D
:100880001F90189526E8230F0296A11DB11DD2CF07
:10089000E9EFF1E01382128288EE93E0A0E0B0E08D
:1008A00084839583A683B7838CE091E091838083D2
:1008B000E5E0F2E0138212828EE191E09183808381
:1008C00087E2848380E1818782E0828713860895AE
:1008D000CF93DF93CDB7DEB7A1970FB6F894DEBF05
:1008E0000FBECDBF789484B5826084BD84B581602D
:1008F00084BD85B5826085BD85B5816085BD8091EB
:100900006E00816080936E00109281008091810062
:10091000826080938100809181008160809381005A
:10092000809180008160809380008091B10084601C
:100930008093B1008091B00081608093B00080917D
:100940007A00846080937A0080917A00826080933C
:100950007A0080917A00816080937A0080917A0099
:10096000806880937A001092C100109288011092E2
:10097000870110928A01109289011092D30181E0BF
:100980008093D5011092D40161E082E10E94400180
:1009900061E083E10E9440018091B9008E7F8093E5
:1009A000B9008091B9008D7F8093B90088E480936D
:1009B000B80085E48093BC0088EB90E09093AC0194
:1009C0008093AB0189EB90E09093B0018093AF01ED
:1009D00010920A0280910F02823018F098E09093F2
:1009E0000A0280930D0262E370E080E090E00E94D2
:1009F000B1016091100285E092E00E94100268EE61
:100A000073E080E090E00E94B10160E385E092E055
:100A10000E9478020BE416E4C8010197F1F760E345
:100A200085E092E00E947802C8010197F1F760E347
:100A300085E092E00E94780283E592E00197F1F769
:100A400060E285E092E00E94780260910A026062B2
:100A500040E085E092E00E94910284E080930B02E6
:100A600040E06CE085E092E00E94910240E061E0AD
:100A700085E092E00E9491020BE31FE1C80101971B
:100A8000F1F782E080930C0240E066E085E092E0BE
:100A90000E94910240E062E085E092E00E949102B3
:100AA000C8010197F1F788E08093100260E085E0CB
:100AB00092E00E94100244244A9473E0572E612C65
:100AC000712CEEEA2E2EE0E03E2EFAE0CF2ED12C55
:100AD000E12CF12C83E480937C0080917A00806487
:100AE00080937A0080917A0086FDFCCF8091780017
:100AF000A0917900BA2FA82F2BE030E00E94AF061A
:100B0000A30192010E945F06A90130933C0120934A
:100B10003B01EAE9F0E01491E6E8F0E084918823F3
:100B200099F090E0880F991FFC01E859FF4FA591BB
:100B3000B491FC01EE58FF4F659174918FB7F89412
:100B40009C91192B1C938FBF4115510509F05BC077
:100B500060E08AE00E94400180E00E94A8024AE032
:100B600050E066E271E085E092E00E94E30181E0FE
:100B70000E94A80280903B0190903C01092C000C3F
:100B8000AA08BB08B7FE85C041E06DE285E092E0AF
:100B90000E94910222273327A901281939094A09FD
:100BA0005B0919A28E010F5D1F4FCA01B901A70190
:100BB00096010E947E06605DF80162938F01211507
:100BC00031054105510589F70115110561F00190C5
:100BD0000020E9F73197AF01401B510BB80185E0C8
:100BE00092E00E94E30148E050E061E371E085E0BB
:100BF00092E00E94E30180E090E0892B09F46ACF43
:100C00000E94000067CF4F3F510511F461E0A1CF72
:100C1000F1018491833019F140F48130B1F08230D8
:100C2000C9F04038510594F793CF873011F18830DF
:100C300041F18430B1F78091800080628093800020
:100C400030938B0020938A0087CF84B5806884BD61
:100C500027BD82CF84B5806284BD28BD7DCF8091C1
:100C60008000806880938000309389002093880002
:100C700073CF8091B00080688093B0002093B30060
:100C80006BCF8091B00080628093B0002093B4005D
:100C900063CFA501940119A28E010F5D1F4FCA01F8
:100CA000B901A70196010E947E06605DF80162937A
:100CB0008F01211531054105510589F785CF052E95
:100CC00097FB1EF400940E94760657FD07D00E9401
:100CD0007E0607FC03D04EF40C94760650954095A2
:100CE000309521953F4F4F4F5F4F089590958095D8
:100CF000709561957F4F8F4F9F4F0895A1E21A2EF7
:100D0000AA1BBB1BFD010DC0AA1FBB1FEE1FFF1FAF
:100D1000A217B307E407F50720F0A21BB30BE40BFF
:100D2000F50B661F771F881F991F1A9469F7609546
:100D30007095809590959B01AC01BD01CF01089500
:100D4000A29FB001B39FC001A39F700D811D11240C
:100D5000911DB29F700D811D1124911D08950E9457
:100D6000A006B7FF0895821B930B0895EE0FFF1F97
:0C0D70000590F491E02D0994F894FFCF59
:100D7C000000400014005400000000001101E400C9
:100D8C007502BA00DD00CA00BB0000000000D902E9
:100D9C00E301750274024272696768746E6573735D
:0A0DAC00002020202020202020003D
:00000001FF
