:100000000C9462000C948A000C948A000C948A0070
:100010000C948A000C948A000C948A000C948A0038
:100020000C948A000C948A000C948A000C948A0028
:100030000C948A000C948A000C948A000C948A0018
:100040000C94D5030C948A000C948A000C948A00BA
:100050000C948A000C948A000C948A000C948A00F8
:100060000C94B6020C948A000000000024002700C3
:100070002A000000000023002600290000000000E4
:10008000250028002B0004040404040404040202D4
:100090000202020203030303030301020408102007
:1000A0004080010204081020010204081020000012
:1000B0000008000201000003040700000000000027
:1000C00000001F0411241FBECFEFD8E0DEBFCDBF5C
:1000D00011E0A0E0B1E0E4E6FCE002C005900D9282
:1000E000AA32B107D9F722E0AAE2B1E001C01D921D
:1000F000A530B207E1F710E0C2E6D0E004C02197D6
:10010000FE010E942A06C136D107C9F70E943F04AA
:100110000C9430060C94000085ED8093BC00809117
:10012000BC0084FDFCCF1092C70108952091A1016D
:10013000260F3327331F21323105ECF42091C701FC
:10014000FC0190E080E0243069F082E00895A09105
:10015000A1012191AC0141585E4FA40FB52FB11DF3
:100160002C930196861798F38091A101680F6093F4
:10017000A10180E0089581E008950895089508950B
:10018000E0917C0180917B01E81730F4F0E0E55AC2
:10019000FE4F808190E008958FEF9FEF089590913A
:1001A0007C0180917B012FEF3FEF981748F4E92FF6
:1001B000F0E0E55AFE4F208130E09F5F90937C0194
:1001C000C901089580917B0190917C01891B990B55
:1001D0000895CF92DF92EF92FF920F931F93CF93E8
:1001E000DF937C01CB018A0120915A01222389F0FF
:1001F000EB016B01C40ED51ECC15DD0569F06991CC
:10020000D701ED91FC910190F081E02DC701099596
:10021000F3CF642F0E949600C801DF91CF911F9108
:100220000F91FF90EF90DF90CF900895CF93DF93E1
:100230001F92CDB7DEB7698320915A012223F9F0CE
:1002400020917D01203258F021E030E0FC01338321
:10025000228390E080E00F90DF91CF91089580910C
:100260007E01E82FF0E0E65CFE4F998190838F5F7E
:1002700080937E0180937D0181E090E0ECCF61E08E
:10028000CE0101960E949600F7CF833081F028F4CA
:10029000813099F08230A9F008958730A9F0883034
:1002A000C9F08430B1F4809180008F7D03C08091CB
:1002B00080008F7780938000089584B58F7784BD08
:1002C000089584B58F7DFBCF8091B0008F778093A8
:1002D000B00008958091B0008F7DF9CFCF93DF9368
:1002E000282F30E0F901E255FF4F8491F901E656DD
:1002F000FF4FD491F901EA57FF4FC491CC2389F005
:1003000081110E944501EC2FF0E0EE0FFF1FE45831
:10031000FF4FA591B4918FB7F894EC91DE2BDC934D
:100320008FBFDF91CF9108953FB7F8948091360148
:1003300090913701A0913801B091390126B5A89B61
:1003400005C02F3F19F00196A11DB11D3FBFBA2F67
:10035000A92F982F8827BC01CD01620F711D811D27
:10036000911D42E0660F771F881F991F4A95D1F7AC
:1003700008958F929F92AF92BF92CF92DF92EF92A9
:10038000FF924B015C010E9494016B017C010E9471
:1003900094016C197D098E099F09683E734081059F
:1003A0009105A8F321E0821A9108A108B10888EE0E
:1003B000C80E83E0D81EE11CF11C81149104A10435
:1003C000B10429F7FF90EF90DF90CF90BF90AF90EE
:1003D0009F908F900895AF92BF92CF92DF92EF924D
:1003E000FF920F931F93CF93DF936C017B018B01DF
:1003F000040F151FEB015E01AE18BF08C017D1072F
:1004000059F06991D601ED91FC910190F081E02DB8
:10041000C6010995892B79F7C501DF91CF911F910D
:100420000F91FF90EF90DF90CF90BF90AF90089525
:10043000CF93FC01C48121E020935A01C0932A018B
:1004400010927E0110927D018385682B8DEE91E0E4
:100450000E94160190917D01913208F03FC0809179
:10046000C7018111FCCF82E08093C70181E08093B6
:10047000C9018FEF8093C6011092EB019093EA01BE
:10048000AAE3B1E0EAECF1E080E098132FC010920B
:10049000EC018091EC01CC0FC82BC093EC01809152
:1004A000C801813039F51092C8018091EC01809328
:1004B000BB008091BC0083FDF8CF85EC8093BC002D
:1004C0008091C7018230E1F38091C6018F3F31F006
:1004D0008091C601803211F08091C60110927E0198
:1004E00010927D0110925A01CF9108952D91219380
:1004F0008F5FCBCF85EEE2CF089590E080E0089546
:100500000F931F93CF938C01C62F0E9418026C2F5C
:100510006460C8010E9418026C2F6B7FC8010E94A2
:10052000180283EC90E00197F1F7CF911F910F91A2
:1005300008950F931F93CF93DF938C01D62FC42F71
:10054000607F642B0E94800280E1D89FB00111245B
:100550006C2BC801DF91CF911F910F910C948002F9
:1005600041E00E94990281E090E008951F920F926D
:100570000FB60F9211242F933F934F935F936F9376
:100580007F938F939F93AF93BF93EF93FF9380914C
:10059000B900887F803609F44AC0F0F5883209F442
:1005A000A7C018F5803109F49BC0B8F4882309F47A
:1005B000F9C0883009F494C0FF91EF91BF91AF91D9
:1005C0009F918F917F916F915F914F913F912F916B
:1005D0000F900FBE0F901F901895883109F488C0B6
:1005E000803251F78093C60114C0803409F49DC055
:1005F00040F48033B9F38833F9F68093C60185EC73
:10060000B0C0803509F485C0883509F496C08834B7
:1006100099F60E948C00D0CF883909F48CC038F547
:10062000883729F050F4883611F0803729F683E0B6
:100630008093C7011092C50157C0883809F47BC068
:10064000803919F0803809F0B7CF8091C501803228
:1006500008F071C0E091C50181E08E0F8093C50163
:100660008091BB00F0E0EB55FE4F80833DC0803BA6
:1006700039F0E0F4803A09F479C0883A09F09CCF67
:1006800084E08093C7011092A2011092A101E09131
:100690009F01F091A00109958091A10181110FC0E6
:1006A00081E08093A10110927F0109C0803C09F490
:1006B000A6CF883C09F4A3CF883B09F07DCFE09119
:1006C000A20181E08E0F8093A201F0E0E158FE4F7D
:1006D00080818093BB009091A2018091A10129C0EB
:1006E0008091EC018093BB0085EC8093BC0064CFCB
:1006F0009091EB018091EA01981758F5E091EB0198
:1007000081E08E0F8093EB01F0E0E653FE4F808195
:10071000E9CFE091EB0181E08E0F8093EB018091B6
:10072000BB00F0E0E653FE4F80839091EB01809197
:10073000EA019817C8F285E8D8CFE091EB0181E093
:100740008E0F8093EB018091BB00F0E0E653FE4FEB
:1007500080838091C90181115CCF81E08093C801C1
:1007600084EA8093BC001092C70126CF85EC809369
:10077000BC001092C7018091C501803230F4E09135
:10078000C501F0E0EB55FE4F10826091C50170E0AD
:10079000E091A301F091A40185EA91E009951092FE
:1007A000C5010ACF1092C60134CF1F920F920FB627
:1007B0000F9211242F933F938F939F93AF93BF93E7
:1007C0008091320190913301A0913401B0913501B3
:1007D0003091310123E0230F2D3758F50196A11DEB
:1007E000B11D209331018093320190933301A09386
:1007F0003401B09335018091360190913701A09179
:100800003801B09139010196A11DB11D80933601C7
:1008100090933701A0933801B0933901BF91AF9104
:100820009F918F913F912F910F900FBE0F901F902E
:10083000189526E8230F0296A11DB11DD2CFEDEE2B
:10084000F1E01382128288EE93E0A0E0B0E08483AE
:100850009583A683B78384E091E091838083E9EF59
:10086000F1E01382128286E191E09183808387E236
:10087000848380E1818782E0828713860895CF9305
:10088000DF93CDB7DEB7A1970FB6F894DEBF0FBEEA
:10089000CDBF789484B5826084BD84B5816084BD09
:1008A00085B5826085BD85B5816085BD80916E000E
:1008B000816080936E00109281008091810082603F
:1008C000809381008091810081608093810080917C
:1008D00080008160809380008091B100846080936B
:1008E000B1008091B00081608093B00080917A0067
:1008F000846080937A0080917A00826080937A008D
:1009000080917A00816080937A0080917A0080687B
:1009100080937A001092C10010927C0110927B01AA
:1009200010927E0110927D011092C70181E08093A8
:10093000C9011092C80182E10E946E0183E10E9408
:100940006E018091B9008E7F8093B9008091B900CB
:100950008D7F8093B90088E48093B80085E480930C
:10096000BC008DEB90E09093A00180939F018EEBF3
:1009700090E09093A4018093A3011092FE018091D6
:100980000302823018F098E09093FE0180930102F8
:1009900062E370E080E090E00E94B901609104029F
:1009A00089EF91E00E94180268EE73E080E090E029
:1009B0000E94B90160E389EF91E00E9480020BE49C
:1009C00016E4C8010197F1F760E389EF91E00E9416
:1009D0008002C8010197F1F760E389EF91E00E947E
:1009E000800283E592E00197F1F760E289EF91E000
:1009F0000E9480026091FE01606240E089EF91E018
:100A00000E94990284E08093FF0140E06CE089EF4E
:100A100091E00E94990240E061E089EF91E00E943C
:100A200099020BE31FE1C8010197F1F782E080937F
:100A3000000240E066E089EF91E00E94990240E008
:100A400062E089EF91E00E949902C8010197F1F7F5
:100A500088E08093040260E089EF91E00E94180230
:100A600041EAE42E40E0F42EF70124915DE8C52E22
:100A700050E0D52EF60184918823C9F090E0880FCC
:100A8000991FFC01E859FF4FA591B491FC01E4586E
:100A9000FF4F459154913FB7F8949C91822F8095D8
:100AA00098239C93FA019081892380833FBF95EB23
:100AB000292E90E0392E2AE0422E512C612C712CE7
:100AC000F1018491F7011491F6010491002309F4D6
:100AD0007FC081110E944501E02FF0E0EE0FFF1F63
:100AE000EE58FF4FA591B4918C91182391E080E0CE
:100AF00009F490E090932F018093300140E060E88A
:100B000089EF91E00E9499024BE050E06EE171E0C4
:100B100089EF91E00E94EB0180902D0190902E01D1
:100B2000092C000CAA08BB08B7FE55C041E06DE2D5
:100B300089EF91E00E94990222273327A901281901
:100B400039094A095B0919A28E010F5D1F4FCA01BD
:100B5000B901A30192010E940806605DF801629349
:100B60008F01211531054105510589F70115110541
:100B700061F001900020E9F73197AF01401B510B64
:100B8000B80189EF91E00E94EB0180912F019091D3
:100B9000300181309105A9F520912B0130912C0174
:100BA000232B71F420912D0130912E012F5F3F4FA7
:100BB00030932E0120932D0190932C0180932B01D3
:100BC00080E090E0892B09F47BCF0E94000078CF71
:100BD00090E080E08FCFA501940119A28E010F5DF6
:100BE0001F4FCA01B901A30192010E940806605D6E
:100BF000F80162938F01211531054105510589F7EF
:100C0000B5CF892BE9F610922C0110922B01D8CF89
:100C1000A1E21A2EAA1BBB1BFD010DC0AA1FBB1F00
:100C2000EE1FFF1FA217B307E407F50720F0A21B72
:100C3000B30BE40BF50B661F771F881F991F1A94DF
:100C400069F760957095809590959B01AC01BD0109
:100C5000CF010895EE0FFF1F0590F491E02D099448
:040C6000F894FFCF36
:100C6400000000001601E9007D02BF00E200CF0091
:100C7400C00000000000B002EB017D027C02486568
:0A0C84006C6C6F20576F726C6400F7
:00000001FF
