:100000000C9462000C948A000C948A000C948A0070
:100010000C948A000C948A000C948A000C9444037B
:100020000C948A000C948A000C948A000C94690346
:100030000C948A000C948A000C948A000C948A0018
:100040000C94A2020C948A000C9412030C94EC02FF
:100050000C948A000C948A000C948A000C948A00F8
:100060000C948A000C948A00000000080002010031
:100070000003040700000000000000000000000072
:10008000240027002A000000000023002600290089
:1000900000000000250028002B00040404040404D0
:1000A0000404020202020202030303030303010227
:1000B00004081020408001020408102001020408F6
:1000C0001020250411241FBECFEFD8E0DEBFCDBF26
:1000D00011E0A0E0B1E0E6E3FFE002C005900D9280
:1000E000A231B107D9F721E0A2E1B1E001C01D9230
:1000F000AC3FB207E1F710E0C2E6D0E004C02197C0
:10010000FE010E949307C136D107C9F70E94D804A7
:100110000C9499070C94000090E0FC01E255FF4F0D
:10012000249186569F4FFC018491882399F090E09A
:10013000880F991FFC01E458FF4FA591B491FC0171
:10014000E057FF4F859194918FB7F894EC91E22B93
:10015000EC938FBF089590E0FC01E859FF4F249184
:10016000FC01E255FF4F3491FC01E656FF4FE4914C
:10017000EE23C9F0222339F0233001F1A8F4213015
:1001800019F1223029F1F0E0EE0FFF1FE057FF4F89
:10019000A591B4918FB7F894EC91611126C0309578
:1001A0003E233C938FBF08952730A9F02830C9F033
:1001B000243049F7809180008F7D03C080918000BA
:1001C0008F7780938000DFCF84B58F7784BDDBCFBE
:1001D00084B58F7DFBCF8091B0008F778093B00086
:1001E000D2CF8091B0008F7DF9CF3E2BDACF3FB7D1
:1001F000F89480911E0190911F01A0912001B0916F
:10020000210126B5A89B05C02F3F19F00196A11D1D
:10021000B11D3FBFBA2FA92F982F8827BC01CD0150
:10022000620F711D811D911D42E0660F771F881FAF
:10023000991F4A95D1F70895AF92BF92CF92DF925E
:10024000EF92FF920F931F93CF93DF936C017B018B
:100250008B01040F151FEB015E01AE18BF08C0171C
:10026000D10759F06991D601ED91FC910190F0818F
:10027000E02DC6010995892B79F7C501DF91CF9152
:100280001F910F91FF90EF90DF90CF90BF90AF90B4
:100290000895FC01538D448D252F30E0842F90E08C
:1002A000821B930B541710F0CF9608950197089571
:1002B000FC01918D828D981761F0A28DAE0FBF2F3A
:1002C000B11D5D968C91928D9F5F9F73928F90E090
:1002D00008958FEF9FEF0895FC01918D828D9817FF
:1002E00031F0828DE80FF11D858D90E008958FEF3C
:1002F0009FEF0895FC01918D228D892F90E0805C05
:100300009F4F821B91098F739927089582E291E094
:100310000E947A0121E0892B09F420E0822F0895C0
:1003200080E090E0892B29F00E94860181110C94D5
:1003300000000895FC01A48DA80FB92FB11DA35A88
:10034000BF4F2C91848D90E001968F739927848FF5
:10035000A689B7892C93A089B1898C918370806418
:100360008C93938D848D981306C00288F389E02DB9
:1003700080818F7D80830895EF92FF920F931F936A
:10038000CF93DF93EC0181E0888F9B8D8C8D981348
:100390001AC0E889F989808185FF15C09FB7F89454
:1003A000EE89FF896083E889F989808183708064A0
:1003B00080839FBF81E090E0DF91CF911F910F91EB
:1003C000FF90EF900895F62E0B8D10E00F5F1F4FFA
:1003D0000F731127E02E8C8D8E110CC00FB607FC09
:1003E000FACFE889F989808185FFF5CFCE010E9497
:1003F0009A01F1CFEB8DEC0FFD2FF11DE35AFF4F6A
:10040000F0829FB7F8940B8FEA89FB898081806224
:10041000CFCFCF93DF93EC01888D8823B9F0AA89E1
:10042000BB89E889F9898C9185FD03C0808186FDAF
:100430000DC00FB607FCF7CF8C9185FFF2CF8081FE
:1004400085FFEDCFCE010E949A01E9CFDF91CF91D8
:1004500008958F929F92AF92BF92FF920F931F9336
:10046000CF93DF93FC01F0808BE08F1508F44EC032
:10047000828108E512E0081B110987FD1395000F22
:10048000111F000F111F8181C8E8D0E0C81BD109DE
:1004900087FDD395CC0FDD1FCC0FDD1F4E010D2E38
:1004A000000CAA08BB08DB0177FF02C0B0E0A0E0A7
:1004B0009801012E000C440B550B281939094A09E3
:1004C0005B090E944E0724EB30E040E050E00E94C0
:1004D0002407820E931EA41EB51E8C169D062CF0BA
:1004E000E801801691060CF4E4012297CC0FDD1F81
:1004F0002FB7F8948F2D90E0FC01EE0FFF1FE80F4F
:10050000F91FE154FE4FD283C1832FBFDF91CF91FA
:100510001F910F91FF90BF90AF909F908F90089583
:10052000892B79F41092800082E0809381001092F0
:10053000850010928400B19A80916F008260809350
:100540006F0008951F920F920FB60F9211242F93F0
:100550003F938F939F93AF93BF9380911A01909194
:100560001B01A0911C01B0911D013091190123E0E4
:10057000230F2D3758F50196A11DB11D20931901A8
:1005800080931A0190931B01A0931C01B0931D014D
:1005900080911E0190911F01A0912001B091210135
:1005A0000196A11DB11D80931E0190931F01A09380
:1005B0002001B0932101BF91AF919F918F913F9105
:1005C0002F910F900FBE0F901F90189526E8230FC4
:1005D0000296A11DB11DD2CF1F920F920FB60F929E
:1005E00011242F933F934F935F936F937F938F9338
:1005F0009F93AF93BF93EF93FF9382E291E00E94AA
:100600009A01FF91EF91BF91AF919F918F917F914F
:100610006F915F914F913F912F910F900FBE0F906F
:100620001F9018951F920F920FB60F9211242F93BF
:100630008F939F93EF93FF93E0913201F0913301F9
:100640008081E0913801F091390182FD1BC09081D9
:1006500080913B018F5F8F7320913C01821741F0A5
:10066000E0913B01F0E0EE5DFE4F958F80933B0102
:10067000FF91EF919F918F912F910F900FBE0F904F
:100680001F9018958081F4CF1F920F920FB60F9292
:1006900011242F933F934F935F936F937F938F9387
:1006A0009F93AF93BF93EF93FF93F0E0E0E0099542
:1006B000FF91EF91BF91AF919F918F917F916F913A
:1006C0005F914F913F912F910F900FBE0F901F9010
:1006D00018951F920F920FB60F9211242F933F93EC
:1006E0004F935F936F937F938F939F93AF93BF933A
:1006F000CF93DF93EF93FF9380911601C091E301B5
:10070000D0E087FF24C01092850010928400809171
:1007100016018F5F8093160180911601082E000C40
:10072000990B8C179D0724F4809116018C30C4F12D
:100730008091840090918500049680349C4908F44F
:100740007AC08091840090918500049676C0809153
:100750001601082E000C990B8C179D07C4F6E0912A
:1007600016018E2FEE0F990BFC01EE0FFF1FE80F05
:10077000F91FE154FE4F808186FFC9CFE091160139
:100780008E2FEE0F990BFC01EE0FFF1FE80FF91FE4
:10079000E154FE4F808160E08F730E94AB00B7CFC1
:1007A0002091840030918500E09116018E2FEE0F8C
:1007B000990BFC01EE0FFF1FE80FF91FE154FE4FEC
:1007C00081819281820F931F90938900809388008A
:1007D000E09116018E2FEE0F990BFC01EE0FFF1F1B
:1007E000E80FF91FE154FE4F808186FF11C0E091B0
:1007F00016018E2FEE0F990BFC01EE0FFF1FE80F75
:10080000F91FE154FE4F808161E08F730E94AB00BD
:10081000FF91EF91DF91CF91BF91AF919F918F9118
:100820007F916F915F914F913F912F910F900FBEEC
:100830000F901F90189580E49CE990938900809315
:1008400088008FEF80931601E3CF1092250110925C
:10085000240188EE93E0A0E0B0E08093260190931D
:100860002701A0932801B093290184E091E090939F
:1008700023018093220185EC90E090932F018093D7
:100880002E0184EC90E0909331018093300180EC54
:1008900090E0909333018093320181EC90E090934B
:1008A00035018093340182EC90E09093370180937E
:1008B000360186EC90E090933901809338011092D4
:1008C0003B0110923C0110923D0110923E01EAEB77
:1008D000F0E0E491E093EE01E9EBF0E0E491E093E5
:1008E000EF0186EA90E0FC012491E22FF0E0EE0FA8
:1008F000FF1FE057FF4F259134913093F101209372
:10090000F001E5EAF0E0E491F0E0EE0FFF1FEA57B6
:10091000FF4F259134913093F3012093F201FC01B4
:100920008491E82FF0E0EE0FFF1FE458FF4F859110
:1009300094919093F5018093F40181EC9CE2909363
:10094000F7018093F6018091E3018C3048F591E046
:10095000980F9093E3018093E70190E0FC01EE0F84
:10096000FF1FE80FF91FE154FE4F88EB9BE09283D5
:1009700081838091E3018C30B8F491E0980F9093DB
:10098000E3018093E40190E0FC01EE0FFF1FE80F0C
:10099000F91FE154FE4F88EB9BE092838183089519
:1009A0008FEF8093E701E5CF8FEF8093E401089507
:1009B000CF93DF93CDB7DEB7A1970FB6F894DEBF24
:1009C0000FBECDBF789484B5826084BD84B581604C
:1009D00084BD85B5826085BD85B5816085BD80910A
:1009E0006E00816080936E00109281008091810082
:1009F000826080938100809181008160809381007A
:100A0000809180008160809380008091B10084603B
:100A10008093B1008091B00081608093B00080919C
:100A20007A00846080937A0080917A00826080935B
:100A30007A0080917A00816080937A0080917A00B8
:100A4000806880937A001092C100E0913201F091A9
:100A5000330182E08083E0912E01F0912F0110821A
:100A6000E0913001F09131018FEC808310923A01D6
:100A7000E0913601F091370186E08083E091340106
:100A8000F0913501808180618083E0913401F091A3
:100A90003501808188608083E0913401F0913501D7
:100AA000808180688083E0913401F09135018081FC
:100AB0008F7D80838091E7018C3008F042C087E011
:100AC0000E948C008091E701282F30E0F901EE0FA1
:100AD000FF1FE20FF31FE154FE4F9081907C97605F
:100AE00090831092E8011092E9012CE0622F0E949D
:100AF000870790E0829FB001112430E020E0AB0135
:100B0000420F531FFA01EE0FFF1FE40FF51FE154D0
:100B1000FE4F408146FD07C02F5F3F4F2C3031050F
:100B200071F70E949002E091E7018E2F90E0FC01A6
:100B3000EE0FFF1FE80FF91FE154FE4F8081806424
:100B400080838091E4018C3008F042C088E00E94EC
:100B50008C008091E401282F30E0F901EE0FFF1F97
:100B6000E20FF31FE154FE4F9081907C98609083D8
:100B70001092E5011092E6012CE0622F0E94870797
:100B800090E0829FB001112430E020E0AB01420FE1
:100B9000531FFA01EE0FFF1FE40FF51FE154FE4F44
:100BA000408146FD07C02F5F3F4F2C30310571F764
:100BB0000E949002E091E4018E2F90E0FC01EE0F84
:100BC000FF1FE80FF91FE154FE4F8081806480838E
:100BD0008AE0C82ED12CE12CF12C9BE0292E312C5F
:100BE00029E3422E512C612C712C8090170190909A
:100BF0001801092C000CAA08BB08B7FE9DC06DE2C5
:100C000082E291E00E94BC0122273327A901281922
:100C100039094A095B0919A28E010F5D1F4FCA01EC
:100C2000B901A70196010E945607605DF801629321
:100C30008F01211531054105510589F70115110570
:100C400061F001900020E9F73197AF01401B510B93
:100C5000B80182E291E00E941C01E091F401F09160
:100C6000F50180819091EE01892B8083E091F00164
:100C7000F091F10190818091EE018095892380832C
:100C8000C1010197F1F7E091F001F091F10180814C
:100C90009091EE01892B808383E290E00197F1F738
:100CA000E091F001F091F10190818091EE01809549
:100CB00089238083E091F401F091F5019081809186
:100CC000EE01809589238083E091F201F091F30198
:100CD00080819091EF01892309F444C090E080E085
:100CE000BC0190E080E0A30192010E94560730937E
:100CF0001801209317016AE570E02B3031052CF4C0
:100D00002A30310561F066EA7FEF87EE91E00E94BC
:100D1000290266EA7FEF84EE91E00E94290280E0DA
:100D200090E0892B09F461CF0E948601882309F4A1
:100D30005CCF0E94000059CFA501940119A28E0139
:100D40000F5D1F4FCA01B901A70196010E94560706
:100D5000605DF80162938F01211531054105510550
:100D600089F76CCF0E94F700AB01BC018091F601BE
:100D70009091F701B0E0A0E08855994EAF4FBF4F7A
:100D8000840F951FA61FB71F8093F8019093F90158
:100D9000A093FA01B093FB01E091F201F091F3010D
:100DA00080819091EF01892381F40E94F7000091E6
:100DB000F8011091F9012091FA013091FB01061719
:100DC00017072807390740F789CF0E94F7002091BD
:100DD000F6013091F701620F731F811D911D609321
:100DE000F8017093F9018093FA019093FB01E0916F
:100DF000F201F091F30180819091EF01892381F05C
:100E00000E94F7000091F8011091F9012091FA0178
:100E10003091FB01061717072807390740F75ECF07
:100E20000E94F7002091F6013091F701A901455089
:100E300051092091F8013091F901FA01E21BF30BFD
:100E4000CF01860F971F4CCF052E97FB1EF4009401
:100E50000E943B0757FD07D00E94560707FC03D0AE
:100E60004EF40C943B0750954095309521953F4F9B
:100E70004F4F5F4F089590958095709561957F4F86
:100E80008F4F9F4F08950E947807A59F900DB49FA4
:100E9000900DA49F800D911D11240895B7FF0C940F
:100EA00043070E944307821B930B0895A1E21A2E69
:100EB000AA1BBB1BFD010DC0AA1FBB1FEE1FFF1FFE
:100EC000A217B307E407F50720F0A21BB30BE40B4E
:100ED000F50B661F771F881F991F1A9469F7609595
:100EE0007095809590959B01AC01BD01CF0108954F
:100EF000A29FB001B39FC001A39F700D811D11245B
:100F0000911DB29F700D811D1124911D0895991B93
:100F100079E004C0991F961708F0961B881F7A95F0
:100F2000C9F780950895EE0FFF1F0590F491E02D0D
:060F30000994F894FFCFC4
:100F360000000000BC011C01490109027A015801A8
:020F46006C013C
:00000001FF
