:100000000C945D000C9485000C9485000C94850084
:100010000C9485000C9485000C9485000C9485004C
:100020000C9485000C9485000C9485000C9485003C
:100030000C9485000C9485000C9485000C9485002C
:100040000C9430020C9485000C94A0020C947A025B
:100050000C9485000C9485000C9485000C9485000C
:100060000C9485000C9485000000000024002700FB
:100070002A0000000000250028002B0004040404CE
:100080000404040402020202020203030303030342
:10009000010204081020408001020408102001021F
:1000A00004081020000000080002010000030407FB
:1000B0000000000000000000140411241FBECFEF58
:1000C000D8E0DEBFCDBF11E0A0E0B1E0E0EEF8E0A7
:1000D00002C005900D92A231B107D9F721E0A2E14B
:1000E000B1E001C01D92AA3BB207E1F710E0CDE5F7
:1000F000D0E004C02197FE010E946304CC35D107F3
:10010000C9F70E94D2020C946E040C940000ECEA31
:10011000F0E09491E8E9F0E02491E4E8F0E0E49183
:10012000EE2309F43CC0992339F1933091F038F46F
:100130009130A9F0923001F594B59F7D12C09730AF
:1001400091F09830A1F09430B9F4909180009F7DA7
:1001500003C0909180009F77909380000DC094B56C
:100160009F7794BD09C09091B0009F7703C0909194
:10017000B0009F7D9093B000F0E0EE0FFF1FEE58AF
:10018000FF4FA591B4919FB7F894811104C08C9151
:100190002095282302C0EC912E2B2C939FBF08950D
:1001A000CF93DF9390E0FC01E057FF4F2491FC01D7
:1001B000E458FF4F8491882361F190E0880F991FE4
:1001C000FC01E859FF4FC591D491FC01EE58FF4F57
:1001D000A591B491611109C09FB7F89488812095C9
:1001E00082238883EC912E230BC0623061F49FB789
:1001F000F8948881322F309583238883EC912E2BBD
:100200002C939FBF06C08FB7F894E8812E2B2883CC
:100210008FBFDF91CF910895CF92DF92EF92FF923F
:100220000F931F93CF93DF936C017A018B01C0E092
:10023000D0E0CE15DF0581F0D8016D918D01D6019A
:10024000ED91FC910190F081E02DC6010995892B7B
:1002500011F02196EECF7E01C701DF91CF911F9162
:100260000F91FF90EF90DF90CF900895089580E078
:1002700090E00895FC01538D448D252F30E0842FAC
:1002800090E0821B930B541710F0CF9608950197BE
:100290000895FC01918D828D981761F0828DDF01A8
:1002A000A80FB11D5D968C91928D9F5F9F73928F69
:1002B00090E008958FEF9FEF0895FC01918D828D5E
:1002C000981731F0828DE80FF11D858D90E008952B
:1002D0008FEF9FEF0895FC01918D228D892F90E083
:1002E000805C9F4F821B91098F73992708958DE140
:1002F00091E00E946B0121E0892B09F420E0822F1C
:100300000895FC01848DDF01A80FB11DA35ABF4FD2
:100310002C91848D90E001968F739927848FA68904
:10032000B7892C93A089B1898C91837080648C9358
:10033000938D848D981306C00288F389E02D808107
:100340008F7D80830895EF92FF920F931F93CF9339
:10035000DF93EC0181E0888F9B8D8C8D981305C015
:10036000E889F989808185FD26C0F62E0B8D10E085
:100370000F5F1F4F0F731127E02E8C8DE8120CC0FA
:100380000FB607FCFACFE889F989808185FFF5CFA0
:10039000CE010E948101F1CF8B8DFE01E80FF11D8E
:1003A000E35AFF4FF0829FB7F8940B8FEA89FB89DD
:1003B000808180620AC09FB7F894EE89FF896083CC
:1003C000E889F98980818370806480839FBF81E0A0
:1003D00090E0DF91CF911F910F91FF90EF900895E2
:1003E000CF93DF93EC01888D8823C9F0EA89FB89DC
:1003F000808185FD05C0A889B9898C9186FD0FC0D3
:100400000FB607FCF5CF808185FFF2CFA889B989A7
:100410008C9185FFEDCFCE010E948101E7CFDF9166
:10042000CF91089580E090E0892B29F00E94770118
:1004300081110C9400000895009769F0FC0101906F
:100440000020E9F73197AF01481B590BBC018DE142
:1004500091E00C940C0180E090E008950E94690402
:100460001F920F920FB60F9211242F933F938F93E9
:100470009F93AF93BF938091190190911A01A0911E
:100480001B01B0911C013091180123E0230F2D377F
:1004900020F40196A11DB11D05C026E8230F029688
:1004A000A11DB11D209318018093190190931A0189
:1004B000A0931B01B0931C01809114019091150130
:1004C000A0911601B09117010196A11DB11D809355
:1004D000140190931501A0931601B0931701BF91D9
:1004E000AF919F918F913F912F910F900FBE0F90E1
:1004F0001F9018951F920F920FB60F9211242F93F1
:100500003F934F935F936F937F938F939F93AF939B
:10051000BF93EF93FF938DE191E00E948101FF91E2
:10052000EF91BF91AF919F918F917F916F915F916B
:100530004F913F912F910F900FBE0F901F901895E4
:100540001F920F920FB60F9211242F938F939F93A8
:10055000EF93FF93E0912D01F0912E018081E091C6
:100560003301F091340182FD12C0908180913601F7
:100570008F5F8F7320913701821751F0E091360120
:10058000F0E0E35EFE4F958F8093360101C08081DD
:10059000FF91EF919F918F912F910F900FBE0F9030
:1005A0001F901895CF93DF93CDB7DEB7A1970FB605
:1005B000F894DEBF0FBECDBF789484B5826084BD51
:1005C00084B5816084BD85B5826085BD85B5816057
:1005D00085BD80916E00816080936E0010928100D5
:1005E0008091810082608093810080918100816090
:1005F0008093810080918000816080938000809151
:10060000B10084608093B1008091B00081608093DC
:10061000B00080917A00846080937A0080917A00A3
:10062000826080937A0080917A00816080937A0062
:1006300080917A00806880937A001092C10061E016
:1006400088E00E94D00060E087E00E94D000E09146
:100650002D01F0912E0182E08083E0912901F0913B
:100660002A011082E0912B01F0912C018FEC808304
:1006700010923501E0913101F091320186E08083E2
:10068000E0912F01F0913001808180618083E091C1
:100690002F01F0913001808188608083E0912F01EB
:1006A000F0913001808180688083E0912F01F0918A
:1006B000300180818F7D808387E4D82E9AE0892E57
:1006C000912CA12CB12C2CEAE22E20E0F22ED0921B
:1006D0007C0080917A00806480937A0080917A0017
:1006E00086FDFCCF809178002091790090E0922BDC
:1006F00090931301809312012C01092E000C6608BF
:10070000770897FF20C06DE28DE191E00E94A30180
:1007100022273327A901241935094609570919A2A7
:100720008E010F5D1F4FCA01B901A50194010E94FE
:100730004104605DF80162938F0121153105410587
:10074000510589F715C0A301920119A28E010F5D11
:100750001F4FCA01B901A50194010E944104605DC7
:10076000F80162938F01211531054105510589F783
:10077000C8010E941C02009112011091130161E056
:1007800088E00E94D0000115110511F480E004C03A
:100790000F3F110521F481E00E94870042C0F7015C
:1007A00084918330F9F048F48130B9F08230A1F5BA
:1007B00084B5806284BD08BD34C08730E9F08830DC
:1007C00019F1843049F58091800080628093800027
:1007D00010938B0000938A0024C084B5806884BD88
:1007E00007BD1FC0809180008068809380001093B7
:1007F00089000093880015C08091B00080688093C4
:10080000B0000093B3000DC08091B000806280936F
:10081000B0000093B40005C0003811050CF0BBCF48
:10082000B5CF0E94120253CFEDE1F1E013821282A4
:1008300088EE93E0A0E0B0E084839583A683B7833D
:1008400084E091E09183808385EC90E095878487B4
:1008500084EC90E09787868780EC90E0918B808B8A
:1008600081EC90E0938B828B82EC90E0958B848B73
:1008700086EC90E0978B868B118E128E138E148EE1
:100880000895A1E21A2EAA1BBB1BFD010DC0AA1FD1
:10089000BB1FEE1FFF1FA217B307E407F50720F0E9
:1008A000A21BB30BE40BF50B661F771F881F991F64
:1008B0001A9469F760957095809590959B01AC01AD
:1008C000BD01CF010895EE0FFF1F0590F491E02DBB
:1008D000099481E090E0F8940C946E04F894FFCFB2
:1008E00000000000A3010C013A01F0016B01490175
:0208F0005D01A8
:00000001FF
