:100000000C9462000C948A000C948A000C948A0070
:100010000C948A000C948A000C948A000C94AC0214
:100020000C948A000C948A000C948A000C94D102DF
:100030000C948A000C948A000C948A000C948A0018
:100040000C940A020C948A000C947A020C945402C8
:100050000C948A000C948A000C948A000C948A00F8
:100060000C948A000C948A00000000080002010031
:100070000003040700000000000000000000000072
:10008000240027002A000000000023002600290089
:1000900000000000250028002B00040404040404D0
:1000A0000404020202020202030303030303010227
:1000B00004081020408001020408102001020408F6
:1000C00010208D0311241FBECFEFD8E0DEBFCDBFBF
:1000D00011E0A0E0B1E0ECE2FDE002C005900D927D
:1000E000A231B107D9F721E0A2E1B1E001C01D9230
:1000F000A93FB207E1F710E0C2E6D0E004C02197C3
:10010000FE010E948E06C136D107C9F70E9426045F
:100110000C9494060C94000090E0FC01E859FF4F09
:100120002491FC01E255FF4F3491FC01E656FF4F4C
:10013000E491EE23C9F0222339F0233001F1A8F431
:10014000213019F1223029F1F0E0EE0FFF1FE057C6
:10015000FF4FA591B4918FB7F894EC91611126C02F
:1001600030953E233C938FBF08952730A9F0283067
:10017000C9F0243049F7809180008F7D03C08091C1
:1001800080008F7780938000DFCF84B58F7784BD28
:10019000DBCF84B58F7DFBCF8091B0008F778093CC
:1001A000B000D2CF8091B0008F7DF9CF3E2BDACF57
:1001B0003FB7F89480911E0190911F01A0912001FA
:1001C000B091210126B5A89B05C02F3F19F00196DB
:1001D000A11DB11D3FBFBA2FA92F982F8827BC01A1
:1001E000CD01620F711D811D911D42E0660F771FC9
:1001F000881F991F4A95D1F70895AF92BF92CF9269
:10020000DF92EF92FF920F931F93CF93DF936C01D6
:100210007B018B01040F151FEB015E01AE18BF08B7
:10022000C017D10759F06991D601ED91FC91019069
:10023000F081E02DC6010995892B79F7C501DF9181
:10024000CF911F910F91FF90EF90DF90CF90BF90D3
:10025000AF900895FC01538D448D252F30E0842FFD
:1002600090E0821B930B541710F0CF9608950197DE
:100270000895FC01918D828D981761F0A28DAE0FCB
:10028000BF2FB11D5D968C91928D9F5F9F73928F52
:1002900090E008958FEF9FEF0895FC01918D828D7E
:1002A000981731F0828DE80FF11D858D90E008954B
:1002B0008FEF9FEF0895FC01918D228D892F90E0A3
:1002C000805C9F4F821B91098F739927089582E26A
:1002D00091E00E945B0121E0892B09F420E0822F4C
:1002E000089580E090E0892B29F00E946701811138
:1002F0000C9400000895FC01A48DA80FB92FB11D26
:10030000A35ABF4F2C91848D90E001968F7399274B
:10031000848FA689B7892C93A089B1898C91837029
:1003200080648C93938D848D981306C00288F38922
:10033000E02D80818F7D80830895EF92FF920F934F
:100340001F93CF93DF93EC0181E0888F9B8D8C8D81
:1003500098131AC0E889F989808185FF15C09FB775
:10036000F894EE89FF896083E889F9898081837038
:10037000806480839FBF81E090E0DF91CF911F91E7
:100380000F91FF90EF900895F62E0B8D10E00F5F08
:100390001F4F0F731127E02E8C8D8E110CC00FB6DE
:1003A00007FCFACFE889F989808185FFF5CFCE0176
:1003B0000E947B01F1CFEB8DEC0FFD2FF11DE35A75
:1003C000FF4FF0829FB7F8940B8FEA89FB898081F9
:1003D0008062CFCFCF93DF93EC01888D8823B9F073
:1003E000AA89BB89E889F9898C9185FD03C0808140
:1003F00086FD0DC00FB607FCF7CF8C9185FFF2CFBD
:10040000808185FFEDCFCE010E947B01E9CFDF9196
:10041000CF9108951F920F920FB60F9211242F9330
:100420003F938F939F93AF93BF9380911A019091C5
:100430001B01A0911C01B0911D013091190123E015
:10044000230F2D3758F50196A11DB11D20931901D9
:1004500080931A0190931B01A0931C01B0931D017E
:1004600080911E0190911F01A0912001B091210166
:100470000196A11DB11D80931E0190931F01A093B1
:100480002001B0932101BF91AF919F918F913F9136
:100490002F910F900FBE0F901F90189526E8230FF5
:1004A0000296A11DB11DD2CF1F920F920FB60F92CF
:1004B00011242F933F934F935F936F937F938F9369
:1004C0009F93AF93BF93EF93FF9382E291E00E94DB
:1004D0007B01FF91EF91BF91AF919F918F917F91A0
:1004E0006F915F914F913F912F910F900FBE0F90A1
:1004F0001F9018951F920F920FB60F9211242F93F1
:100500008F939F93EF93FF93E0913201F09133012A
:100510008081E0913801F091390182FD1BC090810A
:1005200080913B018F5F8F7320913C01821741F0D6
:10053000E0913B01F0E0EE5DFE4F958F80933B0133
:10054000FF91EF919F918F912F910F900FBE0F9080
:100550001F9018958081F4CF1F920F920FB60F92C3
:1005600011242F933F934F935F936F937F938F93B8
:100570009F93AF93BF93EF93FF93F0E0E0E0099573
:10058000FF91EF91BF91AF919F918F917F916F916B
:100590005F914F913F912F910F900FBE0F901F9041
:1005A00018951F920F920FB60F9211242F933F931D
:1005B0004F935F936F937F938F939F93AF93BF936B
:1005C000CF93DF93EF93FF9380911601C091E301E6
:1005D000D0E087FF24C010928500109284008091A3
:1005E00016018F5F8093160180911601082E000C72
:1005F000990B8C179D0724F4809116018C30C4F15F
:100600008091840090918500049680349C4908F480
:100610007AC08091840090918500049676C0809184
:100620001601082E000C990B8C179D07C4F6E0915B
:1006300016018E2FEE0F990BFC01EE0FFF1FE80F36
:10064000F91FE154FE4F808186FFC9CFE09116016A
:100650008E2FEE0F990BFC01EE0FFF1FE80FF91F15
:10066000E154FE4F808160E08F730E948C00B7CF11
:100670002091840030918500E09116018E2FEE0FBD
:10068000990BFC01EE0FFF1FE80FF91FE154FE4F1D
:1006900081819281820F931F9093890080938800BB
:1006A000E09116018E2FEE0F990BFC01EE0FFF1F4C
:1006B000E80FF91FE154FE4F808186FF11C0E091E1
:1006C00016018E2FEE0F990BFC01EE0FFF1FE80FA6
:1006D000F91FE154FE4F808161E08F730E948C000E
:1006E000FF91EF91DF91CF91BF91AF919F918F914A
:1006F0007F916F915F914F913F912F910F900FBE1E
:100700000F901F90189580E49CE990938900809346
:1007100088008FEF80931601E3CF1092250110928D
:10072000240188EE93E0A0E0B0E08093260190934E
:100730002701A0932801B093290184E091E09093D0
:1007400023018093220185EC90E090932F01809308
:100750002E0184EC90E0909331018093300180EC85
:1007600090E0909333018093320181EC90E090937C
:1007700035018093340182EC90E0909337018093AF
:10078000360186EC90E09093390180933801109205
:100790003B0110923C0110923D0110923E01EAEBA8
:1007A000F0E0E491E093EB01E9EBF0E0E491E09319
:1007B000EC0186EA90E0FC012491E22FF0E0EE0FDC
:1007C000FF1FE057FF4F259134913093EE012093A6
:1007D000ED01E5EAF0E0E491F0E0EE0FFF1FEA57EB
:1007E000FF4F259134913093F0012093EF01FC01EC
:1007F0008491E82FF0E0EE0FFF1FE458FF4F859142
:1008000094919093F2018093F10181EC9CE290939A
:10081000F4018093F3018091E3018C3098F491E02E
:10082000980F9093E3018093E40190E0FC01EE0FB8
:10083000FF1FE80FF91FE154FE4F88EB9BE0928306
:10084000818308958FEF8093E4010895CF93DF9320
:10085000CDB7DEB7A1970FB6F894DEBF0FBECDBF00
:10086000789484B5826084BD84B5816084BD85B58B
:10087000826085BD85B5816085BD80916E00816097
:1008800080936E001092810080918100826080933D
:10089000810080918100816080938100809180003F
:1008A0008160809380008091B10084608093B1006A
:1008B0008091B00081608093B00080917A00846064
:1008C00080937A0080917A00826080937A00809190
:1008D0007A00816080937A0080917A0080688093AA
:1008E0007A001092C100E0913201F091330182E070
:1008F0008083E0912E01F0912F011082E091300170
:10090000F09131018FEC808310923A01E091360131
:10091000F091370186E08083E0913401F091350158
:10092000808180618083E0913401F0913501808184
:1009300088608083E0913401F09135018081806886
:100940008083E0913401F091350180818F7D808337
:100950008091E4018C3008F068C0E5EBF0E0249170
:10096000E1EAF0E08491882399F090E0880F991FE4
:10097000FC01E458FF4FA591B491FC01E057FF4FF3
:10098000859194918FB7F894EC91E22BEC938FBF03
:100990008091E401282F30E0F901EE0FFF1FE20FF4
:1009A000F31FE154FE4F9081907C976090831092EA
:1009B000E5011092E6012CE0622F0E948206829FE0
:1009C000B001112430E020E0AB01420F531FFA01C7
:1009D000EE0FFF1FE40FF51FE154FE4F908196FDCF
:1009E00016C02F5F3F4F2C30310571F781110FC0BA
:1009F0001092800082E08093810010928500109216
:100A00008400B19A80916F00826080936F00E091C2
:100A1000E4018E2F90E0FC01EE0FFF1FE80FF91F9D
:100A2000E154FE4F8081806480836AE0C62ED12C21
:100A3000E12CF12C73E2272E312CE9E34E2E512CC0
:100A4000612C712C8090170190901801092C000CDA
:100A5000AA08BB08B7FEACC06DE282E291E00E943A
:100A60009D0122273327A901281939094A095B0961
:100A700019A28E010F5D1F4FCA01B901A70196018E
:100A80000E946006605DF80162938F0121153105B7
:100A90004105510589F70115110561F0019000200C
:100AA000E9F73197AF01401B510BB80182E291E0A9
:100AB0000E94FD00E091F101F091F201808190919E
:100AC000EB01892B8083E091ED01F091EE019081A3
:100AD0008091EB018095892380838BE090E00197E2
:100AE000F1F7E091ED01F091EE0180819091EB0141
:100AF000892B8083C1010197F1F7E091ED01F0911D
:100B0000EE0190818091EB01809589238083E091B3
:100B1000F101F091F20190818091EB0180958923A0
:100B20008083E091EF01F091F00180819091EC01E0
:100B3000892309F453C090E080E0BC0190E080E09C
:100B4000A30192010E9460063093180120931701BF
:100B50002330310504F12091E4012C30E0F4809140
:100B6000E50148E850E0481B510987FD5395CA014B
:100B700033E0880F991F3A95E1F704974FB7F8943F
:100B800030E0F901EE0FFF1FE20FF31FE154FE4FBB
:100B9000928381834FBF80E090E0892B09F452CF8C
:100BA0000E946701882309F44DCF0E9400004ACFBC
:100BB000A501940119A28E010F5D1F4FCA01B90151
:100BC000A70196010E946006605DF80162938F01A3
:100BD000211531054105510589F75DCF0E94D800E7
:100BE000AB01BC018091F3019091F401B0E0A0E071
:100BF0008855994EAF4FBF4F840F951FA61FB71F43
:100C00008093F5019093F601A093F701B093F8015A
:100C1000E091EF01F091F00180819091EC01892346
:100C200081F40E94D8000091F5011091F601209105
:100C3000F7013091F801061717072807390740F721
:100C40007ACF0E94D8002091F3013091F401620F15
:100C5000731F811D911D6093F5017093F6018093C0
:100C6000F7019093F801E091EF01F091F00180819C
:100C70009091EC01892381F00E94D8000091F50148
:100C80001091F6012091F7013091F801061717072E
:100C90002807390740F74FCF0E94D8002091F30171
:100CA0003091F401A901455051092091F50130918D
:100CB000F601FA01E21BF30BCF01860F971F3DCF20
:100CC000A1E21A2EAA1BBB1BFD010DC0AA1FBB1F50
:100CD000EE1FFF1FA217B307E407F50720F0A21BC2
:100CE000B30BE40BF50B661F771F881F991F1A942F
:100CF00069F760957095809590959B01AC01BD0159
:100D0000CF010895991B79E004C0991F961708F048
:100D1000961B881F7A95C9F780950895EE0FFF1FDF
:0C0D20000590F491E02D0994F894FFCFA9
:100D2C00000000009D01FD002A01EA015B01390170
:020D3C004D0167
:00000001FF
