:100000000C9462000C948A000C948A000C948A0070
:100010000C948A000C948A000C948A000C94870437
:100020000C948A000C948A000C948A000C94CB03E4
:100030000C948A000C948A000C948A000C948A0018
:100040000C9429030C948A000C9499030C94730368
:100050000C948A000C948A000C948A000C948A00F8
:100060000C948A000C948A00000000080002010031
:100070000003040700000000000000000000000072
:10008000240027002A000000000023002600290089
:1000900000000000250028002B00040404040404D0
:1000A0000404020202020202030303030303010227
:1000B00004081020408001020408102001020408F6
:1000C0001020AC0411241FBECFEFD8E0DEBFCDBF9F
:1000D00011E0A0E0B1E0EAEAFEE002C005900D9276
:1000E000A631B107D9F721E0A6E1B1E001C01D9228
:1000F000AF3FB207E1F710E0C2E6D0E004C02197BD
:10010000FE010E944D07C136D107C9F70E9446057E
:100110000C9453070C9400008F929F92AF92BF9261
:10012000FF920F931F93CF93DF93F090FC012BE08E
:100130002F1508F44CC02091FE0108E512E0021BC7
:10014000110927FD1395000F111F000F111F20919A
:10015000FD01C8E8D0E0C21BD10927FDD395CC0F23
:10016000DD1FCC0FDD1F4E010D2E000CAA08BB08B1
:100170009801012E000C440B550B281939094A0926
:100180005B09DC010E94080724EB30E040E050E00E
:100190000E94DE06820E931EA41EB51E8C169D06BE
:1001A0002CF0E801801691060CF4E4012297CC0FA4
:1001B000DD1F2FB7F8948F2D90E0FC01EE0FFF1F8D
:1001C000E80FF91FEB53FE4FD283C1832FBFDF919E
:1001D000CF911F910F91FF90BF90AF909F908F9004
:1001E000089590E0FC01E859FF4F2491FC01E2558D
:1001F000FF4F3491FC01E656FF4FE491EE23C9F026
:10020000222339F0233001F1A8F4213019F12230F2
:1002100029F1F0E0EE0FFF1FE057FF4FA591B491D9
:100220008FB7F894EC91611126C030953E233C9332
:100230008FBF08952730A9F02830C9F0243049F73E
:10024000809180008F7D03C0809180008F778093A4
:100250008000DFCF84B58F7784BDDBCF84B58F7D01
:10026000FBCF8091B0008F778093B000D2CF809188
:10027000B0008F7DF9CF3E2BDACF3FB7F894809155
:10028000240190912501A0912601B091270126B566
:10029000A89B05C02F3F19F00196A11DB11D3FBFBE
:1002A000BA2FA92F982F8827BC01CD01620F711D8D
:1002B000811D911D42E0660F771F881F991F4A9587
:1002C000D1F70895AF92BF92CF92DF92EF92FF9253
:1002D0000F931F93CF93DF936C017B018B01040F6E
:1002E000151FEB015E01AE18BF08C017D10759F00A
:1002F0006991D601ED91FC910190F081E02DC6014C
:100300000995892B79F7C501DF91CF911F910F9145
:10031000FF90EF90DF90CF90BF90AF900895FC01D9
:10032000538D448D252F30E0842F90E0821B930B5A
:10033000541710F0CF96089501970895FC01918D00
:10034000828D981761F0A28DAE0FBF2FB11D5D9603
:100350008C91928D9F5F9F73928F90E008958FEFA5
:100360009FEF0895FC01918D828D981731F0828D59
:10037000E80FF11D858D90E008958FEF9FEF0895B0
:10038000FC01918D228D892F90E0805C9F4F821B14
:1003900091098F739927089588E291E00E94C00126
:1003A00021E0892B09F420E0822F089580E090E07D
:1003B000892B29F00E94CC0181110C940000089532
:1003C000FC01A48DA80FB92FB11DA35ABF4F2C91CA
:1003D000848D90E001968F739927848FA689B789C1
:1003E0002C93A089B1898C91837080648C93938DB8
:1003F000848D981306C00288F389E02D80818F7D5B
:1004000080830895EF92FF920F931F93CF93DF9312
:10041000EC0181E0888F9B8D8C8D98131AC0E88940
:10042000F989808185FF15C09FB7F894EE89FF890F
:100430006083E889F98980818370806480839FBFAD
:1004400081E090E0DF91CF911F910F91FF90EF90AD
:100450000895F62E0B8D10E00F5F1F4F0F731127BD
:10046000E02E8C8D8E110CC00FB607FCFACFE889F8
:10047000F989808185FFF5CFCE010E94E001F1CF9F
:10048000EB8DEC0FFD2FF11DE35AFF4FF0829FB76C
:10049000F8940B8FEA89FB8980818062CFCFCF935C
:1004A000DF93EC01888D8823B9F0AA89BB89E8899C
:1004B000F9898C9185FD03C0808186FD0DC00FB642
:1004C00007FCF7CF8C9185FFF2CF808185FFEDCFC0
:1004D000CE010E94E001E9CFDF91CF9108950F9303
:1004E0001F93E091F401F091F50180819091EE016C
:1004F000892B8083E091F001F091F101908180914E
:10050000EE018095892380838BE090E00197F1F7DD
:10051000E091F001F091F10180819091EE01892B41
:10052000808383E290E00197F1F7E091F001F09190
:10053000F10190818091EE01809589238083E09183
:10054000F401F091F50190818091EE01809589236D
:100550008083E091F201F091F30180819091EF01AD
:10056000892329F090E080E01F910F9108950E9467
:100570003D01AB01BC018091F6019091F701B0E023
:10058000A0E08855994EAF4FBF4F840F951FA61F0F
:10059000B71F8093F8019093F901A093FA01B093EB
:1005A000FB01E091F201F091F30180819091EF0164
:1005B000892381F40E943D010091F8011091F90115
:1005C0002091FA013091FB01061717072807390718
:1005D00040F7C8CF0E943D012091F6013091F7010C
:1005E000620F731F811D911D6093F8017093F901D3
:1005F0008093FA019093FB01E091F201F091F301F5
:1006000080819091EF01892381F00E943D0100914A
:10061000F8011091F9012091FA013091FB010617C0
:1006200017072807390740F79DCF0E943D01209109
:10063000F6013091F701A901455051092091F801C7
:100640003091F901FA01E21BF30BCF01860F971FDE
:100650008BCF1F920F920FB60F9211242F933F93BF
:100660008F939F93AF93BF9380912001909121012D
:10067000A0912201B091230130911F0123E0230FAB
:100680002D3758F50196A11DB11D20931F018093B0
:10069000200190932101A0932201B0932301809126
:1006A000240190912501A0912601B0912701019686
:1006B000A11DB11D8093240190932501A0932601D3
:1006C000B0932701BF91AF919F918F913F912F914F
:1006D0000F900FBE0F901F90189526E8230F0296DB
:1006E000A11DB11DD2CF1F920F920FB60F921124F0
:1006F0002F933F934F935F936F937F938F939F932A
:10070000AF93BF93EF93FF9388E291E00E94E001E3
:10071000FF91EF91BF91AF919F918F917F916F91D9
:100720005F914F913F912F910F900FBE0F901F90AF
:1007300018951F920F920FB60F9211242F938F933B
:100740009F93EF93FF93E0913801F09139018081FD
:10075000E0913E01F0913F0182FD1BC090818091AC
:1007600041018F5F8F7320914201821741F0E09128
:100770004101F0E0E85DFE4F958F80934101FF91CC
:10078000EF919F918F912F910F900FBE0F901F901F
:1007900018958081F4CF1F920F920FB60F921124FB
:1007A0002F933F934F935F936F937F938F939F9379
:1007B000AF93BF93CF93DF93EF93FF9380911A0191
:1007C000C091E901D0E087FF24C01092850010920B
:1007D000840080911A018F5F80931A0180911A0121
:1007E000082E000C990B8C179D0724F480911A0198
:1007F0008C30C4F1809184009091850004968034FF
:100800009C4908F47AC080918400909185000496F8
:1008100076C080911A01082E000C990B8C179D0749
:10082000C4F6E0911A018E2FEE0F990BFC01EE0F2A
:10083000FF1FE80FF91FEB53FE4F808186FFC9CFE2
:10084000E0911A018E2FEE0F990BFC01EE0FFF1FA6
:10085000E80FF91FEB53FE4F808160E08F730E9419
:10086000F100B7CF2091840030918500E0911A010A
:100870008E2FEE0F990BFC01EE0FFF1FE80FF91FF3
:10088000EB53FE4F81819281820F931F90938900D9
:1008900080938800E0911A018E2FEE0F990BFC01D6
:1008A000EE0FFF1FE80FF91FEB53FE4F808186FF0D
:1008B00011C0E0911A018E2FEE0F990BFC01EE0F83
:1008C000FF1FE80FF91FEB53FE4F808161E08F732C
:1008D0000E94F100FF91EF91DF91CF91BF91AF9115
:1008E0009F918F917F916F915F914F913F912F9148
:1008F0000F900FBE0F901F90189580E49CE9909385
:100900008900809388008FEF80931A01E3CF1F92B4
:100910000F920FB60F9211242F933F934F935F9333
:100920006F937F938F939F93AF93BF93EF93FF93B7
:10093000F0E0E0E00995FF91EF91BF91AF919F91B9
:100940008F917F916F915F914F913F912F910F9078
:100950000FBE0F901F90189510922B0110922A0134
:1009600088EE93E0A0E0B0E080932C0190932D01FD
:10097000A0932E01B0932F0184E091E09093290180
:100980008093280185EC90E09093350180933401A9
:1009900084EC90E0909337018093360180EC90E0F6
:1009A000909339018093380181EC90E090933B0162
:1009B00080933A0182EC90E090933D0180933C015A
:1009C00086EC90E090933F0180933E0110924101AC
:1009D0001092420110924301109244018091E9016A
:1009E0008C3008F04FC091E0980F9093E90180930C
:1009F000FC0190E0FC01EE0FFF1FE80FF91FEB5325
:100A0000FE4F88EB9BE092838183EAEBF0E0E49178
:100A1000E093EE01E9EBF0E0E491E093EF0186EA88
:100A200090E0FC012491E22FF0E0EE0FFF1FE05771
:100A3000FF4F259134913093F1012093F001E5EAC5
:100A4000F0E0E491F0E0EE0FFF1FEA57FF4F259131
:100A500034913093F3012093F201FC018491E82F4B
:100A6000F0E0EE0FFF1FE458FF4F859194919093B3
:100A7000F5018093F40181EC9CE29093F70180935F
:100A8000F60108958FEF8093FC01BFCFCF93DF93E2
:100A9000CDB7DEB7A1970FB6F894DEBF0FBECDBFBE
:100AA000789484B5826084BD84B5816084BD85B549
:100AB000826085BD85B5816085BD80916E00816055
:100AC00080936E00109281008091810082608093FB
:100AD00081008091810081608093810080918000FD
:100AE0008160809380008091B10084608093B10028
:100AF0008091B00081608093B00080917A00846022
:100B000080937A0080917A00826080937A0080914D
:100B10007A00816080937A0080917A008068809367
:100B20007A001092C100E0913801F091390182E021
:100B30008083E0913401F09135011082E09136011B
:100B4000F09137018FEC808310924001E0913C01DD
:100B5000F0913D0186E08083E0913A01F0913B0104
:100B6000808180618083E0913A01F0913B01808136
:100B700088608083E0913A01F0913B018081806838
:100B80008083E0913A01F0913B0180818F7D8083E9
:100B90008091FC018C3008F068C0E5EBF0E0249116
:100BA000E1EAF0E08491882399F090E0880F991FA2
:100BB000FC01E458FF4FA591B491FC01E057FF4FB1
:100BC000859194918FB7F894EC91E22BEC938FBFC1
:100BD0008091FC01282F30E0F901EE0FFF1FE20F9A
:100BE000F31FEB53FE4F9081907C9760908310929F
:100BF000FD011092FE012CE0622F0E944107829FAE
:100C0000B001112430E020E0AB01420F531FFA0184
:100C1000EE0FFF1FE40FF51FEB53FE4F908196FD83
:100C200016C02F5F3F4F2C30310571F781110FC077
:100C30001092800082E080938100109285001092D3
:100C40008400B19A80916F00826080936F00E09180
:100C5000FC018E2F90E0FC01EE0FFF1FE80FF91F43
:100C6000EB53FE4F8081806480838AE590E00E9490
:100C70008C008AE590E090931C0180931B0190E02A
:100C8000292E90E0392E0E946F02BC0190E080E096
:100C900029E330E040E050E00E94100719A27E01F5
:100CA00081E2E80EF11CCA01B9012AE030E040E01F
:100CB00050E00E941007605DF70162937F012115EB
:100CC00031054105510579F7309761F00190002019
:100CD000E9F73197AF014E195F09B70188E291E05A
:100CE0000E94620142E050E062E171E088E291E03E
:100CF0000E9462010E946F02BC0190E080E029E343
:100D000030E040E050E00E94100769018901309313
:100D10001E0120931D010E943D012B013C0182E335
:100D2000882E912CA12CB12C0E943D0164197509CB
:100D300086099709683E734081059105A8F3F1E0A3
:100D40008F1A9108A108B10828EE420E23E0521E26
:100D5000611C711C81149104A104B10429F7F1E014
:100D6000CF1AD10829E0C216D104C8F480911B0122
:100D700090911C01019690931C0180931B0190E0BF
:100D800080E00E948C002114310409F47CCF0E9481
:100D9000CC01882309F477CF0E94000074CF0B3078
:100DA00011058CF380911B0190911C010197909388
:100DB0001C0180931B0184EB90E0E3CF052E97FB91
:100DC0001EF400940E94F50657FD07D00E941007FC
:100DD00007FC03D04EF40C94F506509540953095E1
:100DE00021953F4F4F4F5F4F089590958095709597
:100DF00061957F4F8F4F9F4F08950E943207A59FA7
:100E0000900DB49F900DA49F800D911D1124089505
:100E1000B7FF0C94FD060E94FD06821B930B0895FC
:100E2000A1E21A2EAA1BBB1BFD010DC0AA1FBB1FEE
:100E3000EE1FFF1FA217B307E407F50720F0A21B60
:100E4000B30BE40BF50B661F771F881F991F1A94CD
:100E500069F760957095809590959B01AC01BD01F7
:100E6000CF010895A29FB001B39FC001A39F700D51
:100E7000811D1124911DB29F700D811D1124911DA2
:100E80000895991B79E004C0991F961708F0961BE6
:100E9000881F7A95C9F780950895EE0FFF1F05907A
:0A0EA000F491E02D0994F894FFCFBF
:100EAA0000000000020262018F014F02C0019E0190
:060EBA00B2010D0A000068
:00000001FF
